:020000000029D5
:10000800B400030EB500031383120B100B1D102848
:100018000B1164308100A00A031383120B100C1C0F
:1000280087280C108F308E00FD308F001B282F087A
:10003800003C031D2E280514851005118511051295
:10004800851221080A168A1500200A128A118800CA
:10005800AF0A8A282F08013C031D41280510851482
:10006800051185110512851222080A168A15002025
:100078000A128A118800AF0A8A282F08023C031D39
:100088005228051085100515851124080A168A15A9
:1000980000200A128A118800AF0A8A282F08033C18
:1000A800031D652805108510051185150512851293
:1000B80023080A168A1500200A128A118800AF0A36
:1000C8008A282F08043C031D78280510851005117F
:1000D80085110516851225080A168A1500200A12A8
:1000E8008A118800AF0A8A28051085100511851124
:1000F8000512851626080A168A1500200A128A1182
:100108008800AF018A280B1C8A280B10350E830043
:06011800B40E340E0900D4
:10020000031383160F138F160F120F140313831685
:1002100087018801850106148614061586150317C3
:100220008316880189010313831616149614161574
:1002300096150313831615149514151595150313A8
:10024000831681128111011181100114031383128D
:100250009016101690101014031383128F308E0016
:10026000FD308F000313831287018501A001A101D6
:10027000A201A401A301A501A601AB01AC01AF013C
:10028000643081008B010C100C140B178B168B172C
:100290008B150B112C088800A100A200A400A3005C
:1002A000A500A6000F30A105F030A205A20E003077
:1002B000A4050030A305A30E0030A5050030A60557
:1002C000A60E30088800A700A800A900AA000F30D9
:1002D000A705F030A805A80E0030A9050030AA0532
:1002E000AA0EA70AAA0A7B292008643C031D7429C8
:1002F000A001A10A732921080A3C031D7429A10148
:10030000A20A82292208063C031D7329A201A40A1D
:10031000892924080A3C031D7329A401A30A9029F2
:100320002308063C031D7329A301A50A9729250864
:100330000A3C031D7329A501A60A9E292608023C32
:10034000031D73292508043C031D7329A601A70A70
:10035000A92927080A3C031D7329A701A80AB02967
:10036000B208003C031DC0292808033C031D732963
:100370002708023C031D7329A801A90AB20A7329A0
:10038000B208013C031DD0292808023C031D732933
:100390002708093C031D7329A801A90AB20A732979
:1003A000B208023C031DE0292808033C031D732901
:1003B0002708023C031D7329A801A90AB20A732960
:1003C000B208033C031DF0292808033C031D7329D0
:1003D0002708013C031D7329A801A90AB20A732941
:1003E000B208043C031D002A2808033C031D73299E
:1003F0002708023C031D7329A801A90AB20A732920
:10040000B208053C031D102A2808033C031D73296C
:100410002708013C031D7329A801A90AB20A732900
:10042000B208063C031D202A2808033C031D73293B
:100430002708023C031D7329A801A90AB20A7329DF
:10044000B208073C031D302A2808033C031D73290A
:100450002708023C031D7329A801A90AB20A7329BF
:10046000B208083C031DC0292808033C031D73295A
:100470002708013C031D7329A801A90AB20A7329A0
:10048000B208093C031DC0292808033C031D732939
:100490002708023C031D7329A801A90AB20A73297F
:1004A000B2080A3C031DC0292808033C031D732918
:1004B0002708013C031D7329A801A90AB20A732960
:1004C000B2080B3C031DC0292808033C031D7329F7
:1004D0002708023C031D7329A801A90AB20A73293F
:1030000082073F3406345B344F3466346D347D348C
:1030100007347F346F3477347C3439345E34793418
:02302000713409
:04400E00D420FF3F7C
:00000001FF
