:020000000029D5
:10000800AD00030EAE000B1D0D280B1164308100EE
:10001800A00A0C1C55280C108F308E00FD308F0064
:1000280015282B08003C031D2628051485100511EA
:10003800851121080A168A1500200A128A118800DB
:10004800AB0A57282B08013C031D372805108514D7
:100058000511851122080A168A1500200A128A112C
:100068008800AB0A57282B08023C031D48280510B6
:1000780085100515851124080A168A1500200A120C
:100088008A118800AB0A57280510851005118515B7
:1000980023080A168A1500200A128A118800AB0163
:1000A80057280B1C57282E0E8300AD0E2D0E090065
:10020000031383160F138F160F120F140313831685
:1002100087018801850106148614061586150317C3
:100220008316880189010313831616149614031389
:10023000831615149514031383168112811101116D
:1002400081100114031383129016101690101014CD
:10025000031383128F308E00FD308F00031383123F
:1002600087018501A001A101A201A701A801AB019D
:10027000643081008B010C100C140B178B168B173C
:1002800028088800A100A200A400A300A500A600E1
:100290000F30A105F030A205A20E0030A4050030F9
:1002A000A305A30E0030A5050030A605A60E5F2904
:1002B0002008643C031D5829A001A10A57292108E0
:1002C0000A3C031D5829A101A20A66292208063CFE
:1002D000031D57290030A20022080A168A150020A3
:1002E0000A128A118800A201A40A762924080A3C6D
:1002F000031D5729A30A7C292308063C031D5729FF
:100300000030A30023080A168A1500200A128A1159
:060310008800A30157293B
:1030000082073F3406345B344F3466346D347D348C
:1030100007347F346F3477347C3439345E34793418
:02302000713409
:04400E00D420FF3F7C
:00000001FF
