:020000000029D5
:10000800AA00030EAB000B1D0D280B1164308100F4
:10001800A00A0C1C55280C108F308E00FD308F0064
:1000280015282808003C031D2628051485100511ED
:10003800851121080A168A1500200A128A118800DB
:10004800A80A57282808013C031D372805108514DD
:100058000511851122080A168A1500200A128A112C
:100068008800A80A57282808023C031D48280510BC
:1000780085100515851124080A168A1500200A120C
:100088008A118800A80A57280510851005118515BA
:1000980023080A168A1500200A128A118800A80166
:1000A80057280B1C57282B0E8300AA0E2A0E09006E
:10020000031383160F138F160F120F140313831685
:1002100087018801850106148614061586150317C3
:100220008316880189010313831616149614031389
:10023000831615149514031383168112811101116D
:1002400081100114031383129016101690101014CD
:10025000031383128F308E00FD308F00031383123F
:1002600087018501A001A101A201A501A601A801A4
:10027000643081008B010C100C140B178B168B173C
:1002800026088800A100A200A400A3000F30A10549
:10029000F030A205A20E0030A4050030A305A30E85
:1002A00058292008643C031D5129A001A10A5029A6
:1002B00021080A3C031D5129A101A20A5F29220835
:1002C000063C031D50290030A20022080A168A1598
:1002D00000200A128A118800A201A40A6F292408AA
:1002E0000A3C031D5029A30A75292308063C031D57
:1002F00050290030A30023080A168A1500200A128C
:080300008A118800A3015029B5
:1030000082073F3406345B344F3466346D347D348C
:1030100007347F346F3477347C3439345E34793418
:02302000713409
:04400E00D420FF3F7C
:00000001FF
