:020000000029D5
:10000800A700030EA8000B1D18280B1164308100EF
:10001800A00A0C1C16280C108F308E00FD308F00A3
:10002800A61C16280B1C1828280E8300A70E270EBE
:020038000900BD
:10020000031383160F138F160F120F140313831685
:1002100087018801850106148614061586150317C3
:100220008316880189010313831616149614031389
:10023000831615149514031383168112811101116D
:1002400081100114031383129016101690101014CD
:10025000031383128F308E00FD308F00031383123F
:1002600087018501A001A101A201A301A4016430BD
:1002700081008B010C100C140B178B168B172408A4
:100280008800A100A2000F30A105F030A205A20E47
:1002900049290514851021080A168A1500200A121A
:1002A0008A1188005A292008643C031D5329A001A3
:1002B000A10A492921080A3C031D5329A1016029EB
:1002C00005108514A20A22080A168A1500200A12AF
:1002D0008A1188006B292208063C031D532900302F
:1002E000A20022080A168A1500200A128A11880024
:0402F000A2015329EB
:1030000082073F3406345B344F3466346D347D348C
:1030100007347F346F3477347C3439345E34793418
:02302000713409
:04400E00D420FF3F7C
:00000001FF
