:020000000029D5
:10000800B400030EB5000B1D0D280B1164308100E0
:10001800AF0A0C1C15280C10EE308E0085308F00AE
:10002800A10A0B1C18280B10350E8300B40E340ED1
:020038000900BD
:10020000031383160F138F160F120F140313831685
:100210008701880185018601061486140615861556
:100220000317831688018901031383161614961485
:100230001615961503138316151495141515951593
:10024000031383168113811281110111811001148E
:1002500003138312901610169010101403138312B8
:10026000EE308E0085308F000313831287018501E5
:100270008601A001A101A201A401A301A501A6017B
:10028000AB01AC01AF01643081008B010C100C1488
:100290000B178B168B178B150B110B102C08880066
:1002A000A100A200A400A300A500A6000F30A10594
:1002B000F030A205A20E0F30A405F030A305A30E66
:1002C0000F30A505F030A605A60E30088800A7005F
:1002D000A800A900AA000F30A705F030A805A80EB5
:1002E0000F30A905F030AA05AA0EA70AAA0A2F08FE
:1002F000031D84290130850021080A168A15002073
:100300000A128A11880077292F08013C031D9229BF
:100310000230850022080A168A1500200A128A1166
:10032000880077292F08023C031DA029043085008E
:1003300024080A168A1500200A128A1188007729D3
:100340002F08033C031DAE290830850023080A1638
:100350008A1500200A128A11880077292F08043C88
:10036000031DBC291030850025080A168A150020B7
:100370000A128A11880077292030850026080A167B
:100380008A1500200A128A118800AF0177292108F6
:100390000A3C031D7729A101A20ACE292208063CA6
:1003A000031D7729A201A40AD52924080A3C031DAC
:1003B0007729A401A30ADC292308063C031D772919
:1003C000A301A50AE32925080A3C031D7729A501F5
:1003D000A60AEA292608023C031D77292508043CC1
:1003E000031D7729A601A70AF52927080A3C031D42
:1003F0007729A701A80AFC29B208003C031D0C2A92
:100400002808033C031D77292708023C031D772990
:10041000A801A90AB20A7729B208013C031D1C2AC7
:100420002808023C031D77292708093C031D77296A
:10043000A801A90AB20A7729B208023C031D2C2A96
:100440002808033C031D77292708023C031D772950
:10045000A801A90AB20A7729B208033C031D3C2A65
:100460002808033C031D77292708013C031D772931
:10047000A801A90AB20A7729B208043C031D4C2A34
:100480002808033C031D77292708023C031D772910
:10049000A801A90AB20A7729B208053C031D5C2A03
:1004A0002808033C031D77292708013C031D7729F1
:1004B000A801A90AB20A7729B208063C031D6C2AD2
:1004C0002808033C031D77292708023C031D7729D0
:1004D000A801A90AB20A7729B208073C031D7C2AA1
:1004E0002808033C031D77292708023C031D7729B0
:1004F000A801A90AB20A7729B208083C031D0C2AF0
:100500002808033C031D77292708013C031D772990
:10051000A801A90AB20A7729B208093C031D0C2ACE
:100520002808033C031D77292708023C031D77296F
:10053000A801A90AB20A7729B2080A3C031D0C2AAD
:100540002808033C031D77292708013C031D772950
:10055000A801A90AB20A7729B2080B3C031D0C2A8C
:100560002808033C031D77292708023C031D77292F
:08057000A801A90AB20A7729CB
:1030000082073F3406345B344F3466346D347D348C
:1030100007347F346F3477347C3439345E34793418
:02302000713409
:04400E00D420FF3F7C
:00000001FF
