:020000000029D5
:10000800A500030EA6000B1D0D280B1164308100FE
:0C001800A00A260E8300A50E250E09008C
:10020000031383160F138F160F120F140313831685
:10021000870188010510851003178316880189015D
:10022000031383168112811101118110011403132C
:10023000831287018501A001A101A201A3016430FD
:1002400081008B018B168B17870A0708A100A2007B
:100250000F30A105F030A205A20E231C30293B2946
:100260000514851021080A168A1500200A128A1121
:100270008800231445290510851422080A168A15BA
:1002800000200A128A118800231020080A3C031D4E
:060290004529A00124290C
:1030000082073F3406345B344F3466346D347D348C
:1030100007347F346F3477347C3439345E34793418
:02302000713409
:04400E00D420FF3F7C
:00000001FF
