:020000000029D5
:10000800A800030EA9000B1D0D280B1164308100F8
:10001800A00A0C1C2F280C108F308E00FD308F008A
:1000280015282608003C031D2428051485102108DE
:100038000A168A1500200A128A118800A60A312891
:100048000510851422080A168A1500200A128A113A
:100058008800A60131280B1C3128290E8300A80E20
:04006800280E090055
:10020000031383160F138F160F120F140313831685
:1002100087018801850106148614061586150317C3
:100220008316880189010313831616149614031389
:10023000831615149514031383168112811101116D
:1002400081100114031383129016101690101014CD
:10025000031383128F308E00FD308F00031383123F
:1002600087018501A001A101A201A301A401A601AA
:10027000643081008B010C100C140B178B168B173C
:1002800024088800A100A2000F30A105F030A205CB
:10029000A20E51292008643C031D4A29A001A10A8D
:1002A000492921080A3C031D4A29A101A20A58290B
:1002B0002208063C031D49290030A20022080A1624
:0E02C0008A1500200A128A118800A20149291D
:1030000082073F3406345B344F3466346D347D348C
:1030100007347F346F3477347C3439345E34793418
:02302000713409
:04400E00D420FF3F7C
:00000001FF
