:020000000029D5
:10000800AD00030EAE000B1D0D280B1164308100EE
:10001800A00A0C1C81280C108F308E00FD308F0038
:1000280015282B08003C031D2828051485100511E8
:1000380085110512851221080A168A1500200A1250
:100048008A118800AB0A83282B08013C031D3B2832
:1000580005108514051185110512851222080A1646
:100068008A1500200A128A118800AB0A83282B08F7
:10007800023C031D4C280510851005158511240820
:100088000A168A1500200A128A118800AB0A8328EA
:100098002B08033C031D5F280510851005118515E5
:1000A8000512851223080A168A1500200A128A11D9
:1000B8008800AB0A83282B08043C031D722805100E
:1000C8008510051185110516851225080A168A1549
:1000D80000200A128A118800AB0A832805108510AF
:1000E800051185110512851626080A168A1500209D
:1000F8000A128A118800AB0183280B1C83282E0E54
:080108008300AD0E2D0E09006D
:10020000031383160F138F160F120F140313831685
:1002100087018801850106148614061586150317C3
:100220008316880189010313831616149614031389
:10023000831615149514031383168112811101116D
:1002400081100114031383129016101690101014CD
:10025000031383128F308E00FD308F00031383123F
:1002600087018501A001A101A201A401A301A501AB
:10027000A601A701A801AB01643081008B010C101D
:100280000C140B178B168B1728088800A100A200EE
:10029000A400A300A500A6000F30A105F030A20520
:1002A000A20E0030A4050030A305A30E0030A50562
:1002B0000030A605A60E63292008643C031D5C29B6
:1002C000A001A10A5B2921080A3C031D5C29A101A8
:1002D000A20A6A292208063C031D5B290030A200FD
:1002E00022080A168A1500200A128A118800A20123
:1002F000A40A7A2924080A3C031D5B29A30A802941
:100300002308063C031D5B290030A30023080A16BE
:100310008A1500200A128A118800A301A50A9029D3
:1003200025080A3C031D5B29A60A96292608063CD7
:10033000031D5B290030A60026080A168A15002036
:0A0340000A128A118800A6015B2949
:1030000082073F3406345B344F3466346D347D348C
:1030100007347F346F3477347C3439345E34793418
:02302000713409
:04400E00D420FF3F7C
:00000001FF
