:020000000029D5
:10000800A800030EA9000B1D0E280B1164308100F7
:10001800A00A31280C1C2F280C108F308E00FD30C0
:100028008F0024282408003C031D2428051485106B
:1000380021080A168A1500200A128A118800312818
:1000480005108514A20A22080A168A1500200A1229
:100058008A11880031280B1C3128290E8300A80E2C
:04006800280E090055
:10020000031383160F138F160F120F140313831685
:1002100087018801850106148614061586150317C3
:100220008316880189010313831616149614031389
:10023000831615149514031383168112811101116D
:1002400081100114031383129016101690101014CD
:10025000031383128F308E00FD308F00031383123F
:1002600087018501A001A101A201A301A4016430BD
:1002700081008B010C100C140B178B168B172408A4
:100280008800A100A2000F30A105F030A205A20E47
:1002900050292008643C031D4929A001A10A4829CE
:1002A00021080A3C031D4929A101A20A5729220855
:1002B000063C031D48290030A20022080A168A15B0
:0C02C00000200A128A118800A2014829BF
:1030000082073F3406345B344F3466346D347D348C
:1030100007347F346F3477347C3439345E34793418
:02302000713409
:04400E00D420FF3F7C
:00000001FF
