:020000000029D5
:10000800B400030EB5000B1D0E280B1164308100DF
:10001800AF0A16280C1C16280C10EE308E008530FE
:100028008F00A10A0B1C19280B10350E8300B40E83
:04003800340E090079
:10020000031383160F138F160F120F140313831685
:100210008701880185018601061486140615861556
:100220000317831688018901031383161614961485
:100230001615961503138316151495141515951593
:10024000031383168112811101118110011403130C
:1002500083129016101690101014031383128F300F
:100260008E00FD308F000313831287018501860104
:10027000A001A101A201A401A301A501A601AB0156
:10028000AC01AF01643081008B010C100C140B1712
:100290008B168B178B150B110B102C088800A100E7
:1002A000A200A400A300A500A6000F30A105F03015
:1002B000A205A20E0F30A405F030A305A30E0F3047
:1002C000A505F030A605A60E30088800A700A800F6
:1002D000A900AA000F30A705F030A805A80E0F301E
:1002E000A905F030AA05AA0EA70AAA0A2F08031D1D
:1002F00083290130850021080A168A1500200A1278
:100300008A118800C6292F08013C031D912902305B
:10031000850022080A168A1500200A128A11880010
:10032000C6292F08023C031D9F290430850024089C
:100330000A168A1500200A128A118800C6292F0879
:10034000033C031DAD290830850023080A168A15D1
:1003500000200A128A118800C6292F08043C031DB8
:10036000BB291030850025080A168A1500200A12BC
:100370008A118800C6292030850026080A168A15A9
:1003800000200A128A118800AF01C62921080A3C00
:10039000031D7629A101A20ACD292208063C031DCE
:1003A0007629A201A40AD42924080A3C031D76292F
:1003B000A401A30ADB292308063C031D7629A30117
:1003C000A50AE22925080A3C031D7629A501A60AEB
:1003D000E9292608023C031D76292508043C031D53
:1003E0007629A601A70AF42927080A3C031D7629C5
:1003F000A701A80AFB29B208003C031D0B2A280804
:10040000033C031D76292708023C031D7629A80119
:10041000A90AB20A7629B208013C031D1B2A280842
:10042000023C031D76292708093C031D7629A801F3
:10043000A90AB20A7629B208023C031D2B2A280811
:10044000033C031D76292708023C031D7629A801D9
:10045000A90AB20A7629B208033C031D3B2A2808E0
:10046000033C031D76292708013C031D7629A801BA
:10047000A90AB20A7629B208043C031D4B2A2808AF
:10048000033C031D76292708023C031D7629A80199
:10049000A90AB20A7629B208053C031D5B2A28087E
:1004A000033C031D76292708013C031D7629A8017A
:1004B000A90AB20A7629B208063C031D6B2A28084D
:1004C000033C031D76292708023C031D7629A80159
:1004D000A90AB20A7629B208073C031D7B2A28081C
:1004E000033C031D76292708023C031D7629A80139
:1004F000A90AB20A7629B208083C031D0B2A28086B
:10050000033C031D76292708013C031D7629A80119
:10051000A90AB20A7629B208093C031D0B2A280849
:10052000033C031D76292708023C031D7629A801F8
:10053000A90AB20A7629B2080A3C031D0B2A280828
:10054000033C031D76292708013C031D7629A801D9
:10055000A90AB20A7629B2080B3C031D0B2A280807
:10056000033C031D76292708023C031D7629A801B8
:06057000A90AB20A762977
:1030000082073F3406345B344F3466346D347D348C
:1030100007347F346F3477347C3439345E34793418
:02302000713409
:04400E00D420FF3F7C
:00000001FF
