:020000000029D5
:10000800A700030EA8000B1D0D280B1164308100FA
:0C001800A00A280E8300A70E270E090086
:10020000031383160F138F160F120F140313831685
:10021000870188010510851003178316880189015D
:10022000031383168112811101118110011403132C
:10023000831287018501A001A101A201A3016430FD
:1002400081008B018B168B172408A100A2000F30B0
:10025000A105F030A205A20E2D2905148510210854
:100260000A168A1500200A128A11880042290510F0
:100270008514A20A22080A168A1500200A128A1179
:10028000880042292008053C031D4229A001A10A3B
:0C02900021080A3C031D2429A101372984
:1030000082073F3406345B344F3466346D347D348C
:1030100007347F346F3477347C3439345E34793418
:02302000713409
:04400E00D420FF3F7C
:00000001FF
