:020000000029D5
:10000800B400030EB500031383120B100B1D102848
:100018000B1164308100A00A031383120B100C1C0F
:1000280087280C108F308E00FD308F001B282F087A
:10003800003C031D2E280514851005118511051295
:10004800851221080A168A1500200A128A118800CA
:10005800AF0A8A282F08013C031D41280510851482
:10006800051185110512851222080A168A15002025
:100078000A128A118800AF0A8A282F08023C031D39
:100088005228051085100515851124080A168A15A9
:1000980000200A128A118800AF0A8A282F08033C18
:1000A800031D652805108510051185150512851293
:1000B80023080A168A1500200A128A118800AF0A36
:1000C8008A282F08043C031D78280510851005117F
:1000D80085110516851225080A168A1500200A12A8
:1000E8008A118800AF0A8A28051085100511851124
:1000F8000512851626080A168A1500200A128A1182
:100108008800AF018A280B1C8A280B10350E830043
:06011800B40E340E0900D4
:10020000031383160F138F160F120F140313831685
:1002100087018801850106148614061586150317C3
:100220008316880189010313831616149614161574
:1002300096150313831615149514151595150313A8
:10024000831681138112811101118110011403138E
:1002500083129016101690101014031383128F300F
:100260008E00FD308F000313831287018501A001EA
:10027000A101A201A401A301A501A601AB01AC014A
:10028000AF01643081008B010C100C140B178B161E
:100290008B178B150B112C088800A100A200A4005D
:1002A000A300A500A6000F30A105F030A205A20E04
:1002B0000030A4050030A305A30E0030A5050030D2
:1002C000A605A60E30088800A700A800A900AA006D
:1002D0000F30A705F030A805A80E0030A9050030A2
:1002E000AA05AA0EA70AAA0A7C292008643C031DB5
:1002F0007529A001A10A742921080A3C031D75294A
:10030000A101A20A83292208063C031D7429A20127
:10031000A40A8A2924080A3C031D7429A401A30AFB
:1003200091292308063C031D7429A301A50A9829D5
:1003300025080A3C031D7429A501A60A9F29260841
:10034000023C031D74292508043C031D7429A601E1
:10035000A70AAA2927080A3C031D7429A701A80A8D
:10036000B129B208003C031DC1292808033C031D24
:1003700074292708023C031D7429A801A90AB20A9E
:100380007429B208013C031DD1292808023C031D31
:1003900074292708093C031D7429A801A90AB20A77
:1003A0007429B208023C031DE1292808033C031DFF
:1003B00074292708023C031D7429A801A90AB20A5E
:1003C0007429B208033C031DF1292808033C031DCE
:1003D00074292708013C031D7429A801A90AB20A3F
:1003E0007429B208043C031D012A2808033C031D9C
:1003F00074292708023C031D7429A801A90AB20A1E
:100400007429B208053C031D112A2808033C031D6A
:1004100074292708013C031D7429A801A90AB20AFE
:100420007429B208063C031D212A2808033C031D39
:1004300074292708023C031D7429A801A90AB20ADD
:100440007429B208073C031D312A2808033C031D08
:1004500074292708023C031D7429A801A90AB20ABD
:100460007429B208083C031DC1292808033C031D58
:1004700074292708013C031D7429A801A90AB20A9E
:100480007429B208093C031DC1292808033C031D37
:1004900074292708023C031D7429A801A90AB20A7D
:1004A0007429B2080A3C031DC1292808033C031D16
:1004B00074292708013C031D7429A801A90AB20A5E
:1004C0007429B2080B3C031DC1292808033C031DF5
:1004D00074292708023C031D7429A801A90AB20A3D
:0204E00074297D
:1030000082073F3406345B344F3466346D347D348C
:1030100007347F346F3477347C3439345E34793418
:02302000713409
:04400E00D420FF3F7C
:00000001FF
